{
  "transactions": [
    {
      "hash": "0x57b9fafe915377d28a835cec728702d0fc2f81c295f4a1f91b6a533ce298dcc0",
      "transactionType": "CALL",
      "contractName": null,
      "contractAddress": "0x598cdad94b9cd8e018da8ee1385ceb474738379e",
      "function": "mint(address,uint256)",
      "arguments": [
        "0x23BF95De9F90338F973056351C8Cd2CB78cbe52f",
        "100000000000000"
      ],
      "transaction": {
        "from": "0x23bf95de9f90338f973056351c8cd2cb78cbe52f",
        "to": "0x598cdad94b9cd8e018da8ee1385ceb474738379e",
        "gas": "0x173ce",
        "value": "0x0",
        "input": "0x40c10f1900000000000000000000000023bf95de9f90338f973056351c8cd2cb78cbe52f00000000000000000000000000000000000000000000000000005af3107a4000",
        "nonce": "0x14d",
        "chainId": "0x14a34"
      },
      "additionalContracts": [],
      "isFixedGasLimit": false
    }
  ],
  "receipts": [
    {
      "status": "0x1",
      "cumulativeGasUsed": "0x2b5e0d",
      "logs": [
        {
          "address": "0x598cdad94b9cd8e018da8ee1385ceb474738379e",
          "topics": [
            "0xddf252ad1be2c89b69c2b068fc378daa952ba7f163c4a11628f55a4df523b3ef",
            "0x0000000000000000000000000000000000000000000000000000000000000000",
            "0x00000000000000000000000023bf95de9f90338f973056351c8cd2cb78cbe52f"
          ],
          "data": "0x00000000000000000000000000000000000000000000000000005af3107a4000",
          "blockHash": "0xc4e14534613ac5c72d81f4c2941fffea40955c48b50d59c78b0ea39def00be1a",
          "blockNumber": "0x1a4c6e1",
          "blockTimestamp": "0x685ceca2",
          "transactionHash": "0x57b9fafe915377d28a835cec728702d0fc2f81c295f4a1f91b6a533ce298dcc0",
          "transactionIndex": "0xf",
          "logIndex": "0x49",
          "removed": false
        }
      ],
      "logsBloom": "0x00001000000000000000000000000000000000000000000000000000000000000000000000000000000000000000000000000000000000000000000000000020000000000000000000000008000000000000000000000000000000000000000000000000020000000000000000000800000000000000000000000010000000000000000000000000000000000000000000000000000000000000000000000000000000008000000000800000000100000000000000000000000000000000000000000002000000000000000000000000008000000000000000000000000020000000000000000000000000000000000000000000000000000000000000000000",
      "type": "0x2",
      "transactionHash": "0x57b9fafe915377d28a835cec728702d0fc2f81c295f4a1f91b6a533ce298dcc0",
      "transactionIndex": "0xf",
      "blockHash": "0xc4e14534613ac5c72d81f4c2941fffea40955c48b50d59c78b0ea39def00be1a",
      "blockNumber": "0x1a4c6e1",
      "gasUsed": "0x10d2f",
      "effectiveGasPrice": "0xf42e6",
      "from": "0x23bf95de9f90338f973056351c8cd2cb78cbe52f",
      "to": "0x598cdad94b9cd8e018da8ee1385ceb474738379e",
      "contractAddress": null,
      "l1BaseFeeScalar": "0x44d",
      "l1BlobBaseFee": "0x1",
      "l1BlobBaseFeeScalar": "0xa118b",
      "l1Fee": "0x17ae7b8a0",
      "l1GasPrice": "0xd7176b73",
      "l1GasUsed": "0x640"
    }
  ],
  "libraries": [
    "src/config/Configuration.Base.sol:ConfigurationBaseMainnet:0x2b99A2A37364219190Acc794C57676527334053B",
    "src/config/Configuration.BaseSepolia.sol:ConfigurationBaseSepolia:0x52cd6f8d84f34B90978aBF0DCDBF0A4c0102c913",
    "src/config/Configuration.Ethereum.sol:ConfigurationEthereumMainnet:0x0a8400e4370e566AA1DFfe4e75F577e728552735",
    "src/config/Configuration.EthereumSepolia.sol:ConfigurationEthereumSepolia:0xa36A20b009d5C053e96D66411996ecedc80F1738",
    "src/config/Configuration.Local.sol:ConfigurationLocal:0x0cABe89b17c67Da50ddEfa550badAe74AE51A0CF",
    "src/config/Configuration.sol:Configuration:0x72Ef3AD7D3738db6CA9bF6B4c3ad2CF1b9303576"
  ],
  "pending": [],
  "returns": {},
  "timestamp": 1750920353,
  "chain": 84532,
  "commit": "c74e5fe"
}