{
  "transactions": [
    {
      "hash": "0x4463a691536c824e9c9d960370ccae6995932dec48c707d04418186034d58839",
      "transactionType": "CALL",
      "contractName": null,
      "contractAddress": "0x75faf114eafb1bdbe2f0316df893fd58ce46aa4d",
      "function": "approve(address,uint256)",
      "arguments": [
        "0xa1764FD159438567c358590dA08aD80d16A43340",
        "115792089237316195423570985008687907853269984665640564039457584007913129639935"
      ],
      "transaction": {
        "from": "0x23bf95de9f90338f973056351c8cd2cb78cbe52f",
        "to": "0x75faf114eafb1bdbe2f0316df893fd58ce46aa4d",
        "gas": "0x11ff3",
        "value": "0x0",
        "input": "0x095ea7b3000000000000000000000000a1764fd159438567c358590da08ad80d16a43340ffffffffffffffffffffffffffffffffffffffffffffffffffffffffffffffff",
        "nonce": "0x1a",
        "chainId": "0x66eee"
      },
      "additionalContracts": [],
      "isFixedGasLimit": false
    },
    {
      "hash": "0x945bc50680c326c06f3333557ff93553dbb53ee3417a950ea1186e17ab7343ff",
      "transactionType": "CALL",
      "contractName": null,
      "contractAddress": "0xa1764fd159438567c358590da08ad80d16a43340",
      "function": "deposit(uint256,address)",
      "arguments": [
        "1",
        "0x23BF95De9F90338F973056351C8Cd2CB78cbe52f"
      ],
      "transaction": {
        "from": "0x23bf95de9f90338f973056351c8cd2cb78cbe52f",
        "to": "0xa1764fd159438567c358590da08ad80d16a43340",
        "gas": "0x6aeea",
        "value": "0x0",
        "input": "0x6e553f65000000000000000000000000000000000000000000000000000000000000000100000000000000000000000023bf95de9f90338f973056351c8cd2cb78cbe52f",
        "nonce": "0x1b",
        "chainId": "0x66eee"
      },
      "additionalContracts": [],
      "isFixedGasLimit": false
    }
  ],
  "receipts": [
    {
      "status": "0x1",
      "cumulativeGasUsed": "0xda45",
      "logs": [
        {
          "address": "0x75faf114eafb1bdbe2f0316df893fd58ce46aa4d",
          "topics": [
            "0x8c5be1e5ebec7d5bd14f71427d1e84f3dd0314c0f7b2291e5b200ac8c7c3b925",
            "0x00000000000000000000000023bf95de9f90338f973056351c8cd2cb78cbe52f",
            "0x000000000000000000000000a1764fd159438567c358590da08ad80d16a43340"
          ],
          "data": "0xffffffffffffffffffffffffffffffffffffffffffffffffffffffffffffffff",
          "blockHash": "0x5f4f53f54b36dece2b391044d358fbd3d052edf20473caec814a9aedc26ed9ce",
          "blockNumber": "0xb1a460e",
          "transactionHash": "0x4463a691536c824e9c9d960370ccae6995932dec48c707d04418186034d58839",
          "transactionIndex": "0x1",
          "logIndex": "0x0",
          "removed": false
        }
      ],
      "logsBloom": "0x00000000000000000000000000000000000000000000000000000000000000000000000000001000000000000000000000000000000000000000000000200000800000000000000000000000000000000000000000400000000000000000000000000000000000000000000000000000000000000000000000000000000000000000000000000000000000000080000000000000000000000000000000000000020000008000000000000000000100000000000000000000000000000000000000000000000000000000000000000000008000000000000000000000000000000010000000000000000000000000000000000000000000000100000000000004",
      "type": "0x2",
      "transactionHash": "0x4463a691536c824e9c9d960370ccae6995932dec48c707d04418186034d58839",
      "transactionIndex": "0x1",
      "blockHash": "0x5f4f53f54b36dece2b391044d358fbd3d052edf20473caec814a9aedc26ed9ce",
      "blockNumber": "0xb1a460e",
      "gasUsed": "0xda45",
      "effectiveGasPrice": "0x5f5e100",
      "from": "0x23bf95de9f90338f973056351c8cd2cb78cbe52f",
      "to": "0x75faf114eafb1bdbe2f0316df893fd58ce46aa4d",
      "contractAddress": null,
      "gasUsedForL1": "0x5c",
      "l1BlockNumber": "0x89d746",
      "timeboosted": false
    },
    {
      "status": "0x1",
      "cumulativeGasUsed": "0x82394",
      "logs": [
        {
          "address": "0x75faf114eafb1bdbe2f0316df893fd58ce46aa4d",
          "topics": [
            "0xddf252ad1be2c89b69c2b068fc378daa952ba7f163c4a11628f55a4df523b3ef",
            "0x00000000000000000000000023bf95de9f90338f973056351c8cd2cb78cbe52f",
            "0x000000000000000000000000a1764fd159438567c358590da08ad80d16a43340"
          ],
          "data": "0x0000000000000000000000000000000000000000000000000000000000000001",
          "blockHash": "0x60d4d33d777b49fdeeb26cff42a75b478116d8b181996fe8398edc1ccaee1e51",
          "blockNumber": "0xb1a4612",
          "transactionHash": "0x945bc50680c326c06f3333557ff93553dbb53ee3417a950ea1186e17ab7343ff",
          "transactionIndex": "0x3",
          "logIndex": "0x5",
          "removed": false
        },
        {
          "address": "0xa1764fd159438567c358590da08ad80d16a43340",
          "topics": [
            "0xddf252ad1be2c89b69c2b068fc378daa952ba7f163c4a11628f55a4df523b3ef",
            "0x0000000000000000000000000000000000000000000000000000000000000000",
            "0x00000000000000000000000023bf95de9f90338f973056351c8cd2cb78cbe52f"
          ],
          "data": "0x0000000000000000000000000000000000000000000000000000000000000001",
          "blockHash": "0x60d4d33d777b49fdeeb26cff42a75b478116d8b181996fe8398edc1ccaee1e51",
          "blockNumber": "0xb1a4612",
          "transactionHash": "0x945bc50680c326c06f3333557ff93553dbb53ee3417a950ea1186e17ab7343ff",
          "transactionIndex": "0x3",
          "logIndex": "0x6",
          "removed": false
        },
        {
          "address": "0xa1764fd159438567c358590da08ad80d16a43340",
          "topics": [
            "0xdcbc1c05240f31ff3ad067ef1ee35ce4997762752e3a095284754544f4c709d7",
            "0x00000000000000000000000023bf95de9f90338f973056351c8cd2cb78cbe52f",
            "0x00000000000000000000000023bf95de9f90338f973056351c8cd2cb78cbe52f"
          ],
          "data": "0x00000000000000000000000000000000000000000000000000000000000000010000000000000000000000000000000000000000000000000000000000000001",
          "blockHash": "0x60d4d33d777b49fdeeb26cff42a75b478116d8b181996fe8398edc1ccaee1e51",
          "blockNumber": "0xb1a4612",
          "transactionHash": "0x945bc50680c326c06f3333557ff93553dbb53ee3417a950ea1186e17ab7343ff",
          "transactionIndex": "0x3",
          "logIndex": "0x7",
          "removed": false
        },
        {
          "address": "0xbfc91d59fdaa134a4ed45f7b584caf96d7792eff",
          "topics": [
            "0x804c9b842b2748a22bb64b345453a3de7ca54a6ca45ce00d415894979e22897a",
            "0x00000000000000000000000075faf114eafb1bdbe2f0316df893fd58ce46aa4d"
          ],
          "data": "0x00000000000000000000000000000000000000000022b0e109229fb39436ffd00000000000000000000000000000000000000000006801c5f9d9fbd9d3408cf80000000000000000000000000000000000000000002e1ab25f4df2dfcd408cf80000000000000000000000000000000000000000036d236e92d7192ec6424d1800000000000000000000000000000000000000000381a33f86eec194047564f1",
          "blockHash": "0x60d4d33d777b49fdeeb26cff42a75b478116d8b181996fe8398edc1ccaee1e51",
          "blockNumber": "0xb1a4612",
          "transactionHash": "0x945bc50680c326c06f3333557ff93553dbb53ee3417a950ea1186e17ab7343ff",
          "transactionIndex": "0x3",
          "logIndex": "0x8",
          "removed": false
        },
        {
          "address": "0x75faf114eafb1bdbe2f0316df893fd58ce46aa4d",
          "topics": [
            "0xddf252ad1be2c89b69c2b068fc378daa952ba7f163c4a11628f55a4df523b3ef",
            "0x000000000000000000000000a1764fd159438567c358590da08ad80d16a43340",
            "0x000000000000000000000000460b97bd498e1157530aeb3086301d5225b91216"
          ],
          "data": "0x0000000000000000000000000000000000000000000000000000000000000001",
          "blockHash": "0x60d4d33d777b49fdeeb26cff42a75b478116d8b181996fe8398edc1ccaee1e51",
          "blockNumber": "0xb1a4612",
          "transactionHash": "0x945bc50680c326c06f3333557ff93553dbb53ee3417a950ea1186e17ab7343ff",
          "transactionIndex": "0x3",
          "logIndex": "0x9",
          "removed": false
        },
        {
          "address": "0x460b97bd498e1157530aeb3086301d5225b91216",
          "topics": [
            "0xddf252ad1be2c89b69c2b068fc378daa952ba7f163c4a11628f55a4df523b3ef",
            "0x0000000000000000000000000000000000000000000000000000000000000000",
            "0x000000000000000000000000a1764fd159438567c358590da08ad80d16a43340"
          ],
          "data": "0x0000000000000000000000000000000000000000000000000000000000000001",
          "blockHash": "0x60d4d33d777b49fdeeb26cff42a75b478116d8b181996fe8398edc1ccaee1e51",
          "blockNumber": "0xb1a4612",
          "transactionHash": "0x945bc50680c326c06f3333557ff93553dbb53ee3417a950ea1186e17ab7343ff",
          "transactionIndex": "0x3",
          "logIndex": "0xa",
          "removed": false
        },
        {
          "address": "0x460b97bd498e1157530aeb3086301d5225b91216",
          "topics": [
            "0x458f5fa412d0f69b08dd84872b0215675cc67bc1d5b6fd93300a1c3878b86196",
            "0x000000000000000000000000a1764fd159438567c358590da08ad80d16a43340",
            "0x000000000000000000000000a1764fd159438567c358590da08ad80d16a43340"
          ],
          "data": "0x000000000000000000000000000000000000000000000000000000000000000100000000000000000000000000000000000000000000000000000000000000000000000000000000000000000000000000000000036d236e92d7192ec6424d18",
          "blockHash": "0x60d4d33d777b49fdeeb26cff42a75b478116d8b181996fe8398edc1ccaee1e51",
          "blockNumber": "0xb1a4612",
          "transactionHash": "0x945bc50680c326c06f3333557ff93553dbb53ee3417a950ea1186e17ab7343ff",
          "transactionIndex": "0x3",
          "logIndex": "0xb",
          "removed": false
        },
        {
          "address": "0xbfc91d59fdaa134a4ed45f7b584caf96d7792eff",
          "topics": [
            "0x00058a56ea94653cdf4f152d227ace22d4c00ad99e2a43f58cb7d9e3feb295f2",
            "0x00000000000000000000000075faf114eafb1bdbe2f0316df893fd58ce46aa4d",
            "0x000000000000000000000000a1764fd159438567c358590da08ad80d16a43340"
          ],
          "data": "0x",
          "blockHash": "0x60d4d33d777b49fdeeb26cff42a75b478116d8b181996fe8398edc1ccaee1e51",
          "blockNumber": "0xb1a4612",
          "transactionHash": "0x945bc50680c326c06f3333557ff93553dbb53ee3417a950ea1186e17ab7343ff",
          "transactionIndex": "0x3",
          "logIndex": "0xc",
          "removed": false
        },
        {
          "address": "0xbfc91d59fdaa134a4ed45f7b584caf96d7792eff",
          "topics": [
            "0x2b627736bca15cd5381dcf80b0bf11fd197d01a037c52b927a881a10fb73ba61",
            "0x00000000000000000000000075faf114eafb1bdbe2f0316df893fd58ce46aa4d",
            "0x000000000000000000000000a1764fd159438567c358590da08ad80d16a43340",
            "0x0000000000000000000000000000000000000000000000000000000000000000"
          ],
          "data": "0x000000000000000000000000a1764fd159438567c358590da08ad80d16a433400000000000000000000000000000000000000000000000000000000000000001",
          "blockHash": "0x60d4d33d777b49fdeeb26cff42a75b478116d8b181996fe8398edc1ccaee1e51",
          "blockNumber": "0xb1a4612",
          "transactionHash": "0x945bc50680c326c06f3333557ff93553dbb53ee3417a950ea1186e17ab7343ff",
          "transactionIndex": "0x3",
          "logIndex": "0xd",
          "removed": false
        },
        {
          "address": "0xa1764fd159438567c358590da08ad80d16a43340",
          "topics": [
            "0xba3ffa58e6beddd202dec6f1b1bb88dbb12d8823d523283b2ebbe9b627c9eb02"
          ],
          "data": "0x00000000000000000000000000000000000000000000000000000000000000010000000000000000000000000000000000000000000000000000000000000001",
          "blockHash": "0x60d4d33d777b49fdeeb26cff42a75b478116d8b181996fe8398edc1ccaee1e51",
          "blockNumber": "0xb1a4612",
          "transactionHash": "0x945bc50680c326c06f3333557ff93553dbb53ee3417a950ea1186e17ab7343ff",
          "transactionIndex": "0x3",
          "logIndex": "0xe",
          "removed": false
        }
      ],
      "logsBloom": "0x000000000000080000800000000000000000000000000000000000000000000000000000000010000000000000240000000180000000000100000000000080008000004401000002000000080100000000000000004000000000000400000100000000000200000000000000000008000200000000040020000000100001000000000000800000000000000000800000000c0000000000000000000000000000000000008000000000000000000100000000000000000000000000000000010002000002000000000000002040000000008000000008080000000400000020000000000000000000000000000000000040000000000000001100400000000004",
      "type": "0x2",
      "transactionHash": "0x945bc50680c326c06f3333557ff93553dbb53ee3417a950ea1186e17ab7343ff",
      "transactionIndex": "0x3",
      "blockHash": "0x60d4d33d777b49fdeeb26cff42a75b478116d8b181996fe8398edc1ccaee1e51",
      "blockNumber": "0xb1a4612",
      "gasUsed": "0x4d709",
      "effectiveGasPrice": "0x5f5e100",
      "from": "0x23bf95de9f90338f973056351c8cd2cb78cbe52f",
      "to": "0xa1764fd159438567c358590da08ad80d16a43340",
      "contractAddress": null,
      "gasUsedForL1": "0x5c",
      "l1BlockNumber": "0x89d746",
      "timeboosted": false
    }
  ],
  "libraries": [
    "src/config/Configuration.ArbitrumSepolia.sol:ConfigurationArbitrumSepolia:0x3ab0BBb104b0c63d141f539D87837F48605d1CF4",
    "src/config/Configuration.Base.sol:ConfigurationBaseMainnet:0xD13D14704f64f62Cb3B75814E26514e4642b893E",
    "src/config/Configuration.BaseSepolia.sol:ConfigurationBaseSepolia:0x8C9707A874417478512af6a60Ff0a6B7dd5541ef",
    "src/config/Configuration.Ethereum.sol:ConfigurationEthereumMainnet:0xf0b67Ec0a02A083c78B28eEdc7CfbC9e864fFA5c",
    "src/config/Configuration.EthereumSepolia.sol:ConfigurationEthereumSepolia:0xdd690679a9b8C835099Bd5d057c947BAc408E047",
    "src/config/Configuration.Local.sol:ConfigurationLocal:0x86BEf2F92c498402689b86aFA397AD6427d84fa3",
    "src/config/Configuration.sol:Configuration:0xcEA7C373b83bcE3b3aaa76788A0b754afaE21567"
  ],
  "pending": [],
  "returns": {},
  "timestamp": 1755791829754,
  "chain": 421614,
  "commit": "ac5ecf8"
}