{
  "transactions": [
    {
      "hash": "0x2c3dc1b042e0f7ff9de4c19ffc31f952bbd24e6103275aacc8db08b2133650fe",
      "transactionType": "CALL",
      "contractName": null,
      "contractAddress": "0x75faf114eafb1bdbe2f0316df893fd58ce46aa4d",
      "function": "approve(address,uint256)",
      "arguments": [
        "0xcEc84a8e4000Dc7d2B64bbbe9fD3559A725B9945",
        "115792089237316195423570985008687907853269984665640564039457584007913129639935"
      ],
      "transaction": {
        "from": "0x23bf95de9f90338f973056351c8cd2cb78cbe52f",
        "to": "0x75faf114eafb1bdbe2f0316df893fd58ce46aa4d",
        "gas": "0x11f4e",
        "value": "0x0",
        "input": "0x095ea7b3000000000000000000000000cec84a8e4000dc7d2b64bbbe9fd3559a725b9945ffffffffffffffffffffffffffffffffffffffffffffffffffffffffffffffff",
        "nonce": "0x1f",
        "chainId": "0x66eee"
      },
      "additionalContracts": [],
      "isFixedGasLimit": false
    },
    {
      "hash": "0xee964e4f63cb19c177b28bd9fed473097d41d1d6e8be66952ccc4400d96de8a9",
      "transactionType": "CALL",
      "contractName": null,
      "contractAddress": "0xcec84a8e4000dc7d2b64bbbe9fd3559a725b9945",
      "function": "deposit(uint256,address)",
      "arguments": [
        "1",
        "0x23BF95De9F90338F973056351C8Cd2CB78cbe52f"
      ],
      "transaction": {
        "from": "0x23bf95de9f90338f973056351c8cd2cb78cbe52f",
        "to": "0xcec84a8e4000dc7d2b64bbbe9fd3559a725b9945",
        "gas": "0x6aeea",
        "value": "0x0",
        "input": "0x6e553f65000000000000000000000000000000000000000000000000000000000000000100000000000000000000000023bf95de9f90338f973056351c8cd2cb78cbe52f",
        "nonce": "0x20",
        "chainId": "0x66eee"
      },
      "additionalContracts": [],
      "isFixedGasLimit": false
    }
  ],
  "receipts": [
    {
      "status": "0x1",
      "cumulativeGasUsed": "0xd9dd",
      "logs": [
        {
          "address": "0x75faf114eafb1bdbe2f0316df893fd58ce46aa4d",
          "topics": [
            "0x8c5be1e5ebec7d5bd14f71427d1e84f3dd0314c0f7b2291e5b200ac8c7c3b925",
            "0x00000000000000000000000023bf95de9f90338f973056351c8cd2cb78cbe52f",
            "0x000000000000000000000000cec84a8e4000dc7d2b64bbbe9fd3559a725b9945"
          ],
          "data": "0xffffffffffffffffffffffffffffffffffffffffffffffffffffffffffffffff",
          "blockHash": "0x64a114fb9d14bfe436e8aab518794b0d7f5ac4b3ec48d644103ae647f6079c98",
          "blockNumber": "0xba8bda4",
          "transactionHash": "0x2c3dc1b042e0f7ff9de4c19ffc31f952bbd24e6103275aacc8db08b2133650fe",
          "transactionIndex": "0x1",
          "logIndex": "0x0",
          "removed": false
        }
      ],
      "logsBloom": "0x00000000000000000000000000000000000000000000000000000000000000000000000000000000000000000000000000008000000000000000000000200000c00000000000000000000000000000000000000000000000000000000000000000000000000000000000000000000000000000000000000000000000000000000010000000000000000000000000000000000000000000000000000000000000020000008000000000000000000100000000000000000000000000000000000000000000000000000000000000000000008000000000000000000000000000000010000000000000000000000000000000000000000000000100000000000004",
      "type": "0x2",
      "transactionHash": "0x2c3dc1b042e0f7ff9de4c19ffc31f952bbd24e6103275aacc8db08b2133650fe",
      "transactionIndex": "0x1",
      "blockHash": "0x64a114fb9d14bfe436e8aab518794b0d7f5ac4b3ec48d644103ae647f6079c98",
      "blockNumber": "0xba8bda4",
      "gasUsed": "0xd9dd",
      "effectiveGasPrice": "0x5f5e100",
      "from": "0x23bf95de9f90338f973056351c8cd2cb78cbe52f",
      "to": "0x75faf114eafb1bdbe2f0316df893fd58ce46aa4d",
      "contractAddress": null,
      "gasUsedForL1": "0x0",
      "l1BlockNumber": "0x8cd3aa",
      "timeboosted": false
    },
    {
      "status": "0x1",
      "cumulativeGasUsed": "0x4d6ad",
      "logs": [
        {
          "address": "0x75faf114eafb1bdbe2f0316df893fd58ce46aa4d",
          "topics": [
            "0xddf252ad1be2c89b69c2b068fc378daa952ba7f163c4a11628f55a4df523b3ef",
            "0x00000000000000000000000023bf95de9f90338f973056351c8cd2cb78cbe52f",
            "0x000000000000000000000000cec84a8e4000dc7d2b64bbbe9fd3559a725b9945"
          ],
          "data": "0x0000000000000000000000000000000000000000000000000000000000000001",
          "blockHash": "0x8d3e32d4c1bd5234be7f846b61d4b6bf97798178d650f79a1a73c15524e8e468",
          "blockNumber": "0xba8bda7",
          "transactionHash": "0xee964e4f63cb19c177b28bd9fed473097d41d1d6e8be66952ccc4400d96de8a9",
          "transactionIndex": "0x1",
          "logIndex": "0x0",
          "removed": false
        },
        {
          "address": "0xcec84a8e4000dc7d2b64bbbe9fd3559a725b9945",
          "topics": [
            "0xddf252ad1be2c89b69c2b068fc378daa952ba7f163c4a11628f55a4df523b3ef",
            "0x0000000000000000000000000000000000000000000000000000000000000000",
            "0x00000000000000000000000023bf95de9f90338f973056351c8cd2cb78cbe52f"
          ],
          "data": "0x0000000000000000000000000000000000000000000000000000000000000001",
          "blockHash": "0x8d3e32d4c1bd5234be7f846b61d4b6bf97798178d650f79a1a73c15524e8e468",
          "blockNumber": "0xba8bda7",
          "transactionHash": "0xee964e4f63cb19c177b28bd9fed473097d41d1d6e8be66952ccc4400d96de8a9",
          "transactionIndex": "0x1",
          "logIndex": "0x1",
          "removed": false
        },
        {
          "address": "0xcec84a8e4000dc7d2b64bbbe9fd3559a725b9945",
          "topics": [
            "0xdcbc1c05240f31ff3ad067ef1ee35ce4997762752e3a095284754544f4c709d7",
            "0x00000000000000000000000023bf95de9f90338f973056351c8cd2cb78cbe52f",
            "0x00000000000000000000000023bf95de9f90338f973056351c8cd2cb78cbe52f"
          ],
          "data": "0x00000000000000000000000000000000000000000000000000000000000000010000000000000000000000000000000000000000000000000000000000000001",
          "blockHash": "0x8d3e32d4c1bd5234be7f846b61d4b6bf97798178d650f79a1a73c15524e8e468",
          "blockNumber": "0xba8bda7",
          "transactionHash": "0xee964e4f63cb19c177b28bd9fed473097d41d1d6e8be66952ccc4400d96de8a9",
          "transactionIndex": "0x1",
          "logIndex": "0x2",
          "removed": false
        },
        {
          "address": "0xbfc91d59fdaa134a4ed45f7b584caf96d7792eff",
          "topics": [
            "0x804c9b842b2748a22bb64b345453a3de7ca54a6ca45ce00d415894979e22897a",
            "0x00000000000000000000000075faf114eafb1bdbe2f0316df893fd58ce46aa4d"
          ],
          "data": "0x000000000000000000000000000000000000000000234be754ab880ca5653a01000000000000000000000000000000000000000000686857723ceaf669e02bcd0000000000000000000000000000000000000000002e8143d7b0e1fc63e02bcd00000000000000000000000000000000000000000374b2c020dc357fd0e9ead90000000000000000000000000000000000000000038b23ea36a01f4b07548d0e",
          "blockHash": "0x8d3e32d4c1bd5234be7f846b61d4b6bf97798178d650f79a1a73c15524e8e468",
          "blockNumber": "0xba8bda7",
          "transactionHash": "0xee964e4f63cb19c177b28bd9fed473097d41d1d6e8be66952ccc4400d96de8a9",
          "transactionIndex": "0x1",
          "logIndex": "0x3",
          "removed": false
        },
        {
          "address": "0x75faf114eafb1bdbe2f0316df893fd58ce46aa4d",
          "topics": [
            "0xddf252ad1be2c89b69c2b068fc378daa952ba7f163c4a11628f55a4df523b3ef",
            "0x000000000000000000000000cec84a8e4000dc7d2b64bbbe9fd3559a725b9945",
            "0x000000000000000000000000460b97bd498e1157530aeb3086301d5225b91216"
          ],
          "data": "0x0000000000000000000000000000000000000000000000000000000000000001",
          "blockHash": "0x8d3e32d4c1bd5234be7f846b61d4b6bf97798178d650f79a1a73c15524e8e468",
          "blockNumber": "0xba8bda7",
          "transactionHash": "0xee964e4f63cb19c177b28bd9fed473097d41d1d6e8be66952ccc4400d96de8a9",
          "transactionIndex": "0x1",
          "logIndex": "0x4",
          "removed": false
        },
        {
          "address": "0x460b97bd498e1157530aeb3086301d5225b91216",
          "topics": [
            "0xddf252ad1be2c89b69c2b068fc378daa952ba7f163c4a11628f55a4df523b3ef",
            "0x0000000000000000000000000000000000000000000000000000000000000000",
            "0x000000000000000000000000cec84a8e4000dc7d2b64bbbe9fd3559a725b9945"
          ],
          "data": "0x0000000000000000000000000000000000000000000000000000000000000001",
          "blockHash": "0x8d3e32d4c1bd5234be7f846b61d4b6bf97798178d650f79a1a73c15524e8e468",
          "blockNumber": "0xba8bda7",
          "transactionHash": "0xee964e4f63cb19c177b28bd9fed473097d41d1d6e8be66952ccc4400d96de8a9",
          "transactionIndex": "0x1",
          "logIndex": "0x5",
          "removed": false
        },
        {
          "address": "0x460b97bd498e1157530aeb3086301d5225b91216",
          "topics": [
            "0x458f5fa412d0f69b08dd84872b0215675cc67bc1d5b6fd93300a1c3878b86196",
            "0x000000000000000000000000cec84a8e4000dc7d2b64bbbe9fd3559a725b9945",
            "0x000000000000000000000000cec84a8e4000dc7d2b64bbbe9fd3559a725b9945"
          ],
          "data": "0x0000000000000000000000000000000000000000000000000000000000000001000000000000000000000000000000000000000000000000000000000000000000000000000000000000000000000000000000000374b2c020dc357fd0e9ead9",
          "blockHash": "0x8d3e32d4c1bd5234be7f846b61d4b6bf97798178d650f79a1a73c15524e8e468",
          "blockNumber": "0xba8bda7",
          "transactionHash": "0xee964e4f63cb19c177b28bd9fed473097d41d1d6e8be66952ccc4400d96de8a9",
          "transactionIndex": "0x1",
          "logIndex": "0x6",
          "removed": false
        },
        {
          "address": "0xbfc91d59fdaa134a4ed45f7b584caf96d7792eff",
          "topics": [
            "0x00058a56ea94653cdf4f152d227ace22d4c00ad99e2a43f58cb7d9e3feb295f2",
            "0x00000000000000000000000075faf114eafb1bdbe2f0316df893fd58ce46aa4d",
            "0x000000000000000000000000cec84a8e4000dc7d2b64bbbe9fd3559a725b9945"
          ],
          "data": "0x",
          "blockHash": "0x8d3e32d4c1bd5234be7f846b61d4b6bf97798178d650f79a1a73c15524e8e468",
          "blockNumber": "0xba8bda7",
          "transactionHash": "0xee964e4f63cb19c177b28bd9fed473097d41d1d6e8be66952ccc4400d96de8a9",
          "transactionIndex": "0x1",
          "logIndex": "0x7",
          "removed": false
        },
        {
          "address": "0xbfc91d59fdaa134a4ed45f7b584caf96d7792eff",
          "topics": [
            "0x2b627736bca15cd5381dcf80b0bf11fd197d01a037c52b927a881a10fb73ba61",
            "0x00000000000000000000000075faf114eafb1bdbe2f0316df893fd58ce46aa4d",
            "0x000000000000000000000000cec84a8e4000dc7d2b64bbbe9fd3559a725b9945",
            "0x0000000000000000000000000000000000000000000000000000000000000000"
          ],
          "data": "0x000000000000000000000000cec84a8e4000dc7d2b64bbbe9fd3559a725b99450000000000000000000000000000000000000000000000000000000000000001",
          "blockHash": "0x8d3e32d4c1bd5234be7f846b61d4b6bf97798178d650f79a1a73c15524e8e468",
          "blockNumber": "0xba8bda7",
          "transactionHash": "0xee964e4f63cb19c177b28bd9fed473097d41d1d6e8be66952ccc4400d96de8a9",
          "transactionIndex": "0x1",
          "logIndex": "0x8",
          "removed": false
        },
        {
          "address": "0xcec84a8e4000dc7d2b64bbbe9fd3559a725b9945",
          "topics": [
            "0xba3ffa58e6beddd202dec6f1b1bb88dbb12d8823d523283b2ebbe9b627c9eb02"
          ],
          "data": "0x00000000000000000000000000000000000000000000000000000000000000010000000000000000000000000000000000000000000000000000000000000001",
          "blockHash": "0x8d3e32d4c1bd5234be7f846b61d4b6bf97798178d650f79a1a73c15524e8e468",
          "blockNumber": "0xba8bda7",
          "transactionHash": "0xee964e4f63cb19c177b28bd9fed473097d41d1d6e8be66952ccc4400d96de8a9",
          "transactionIndex": "0x1",
          "logIndex": "0x9",
          "removed": false
        }
      ],
      "logsBloom": "0x00000000000008000080000000000000000000000000000000000000000000000000000000000000000000000004000000018000000000010000000000000000c000004401000002000000080100000000000000000000000000000400000000000000000200000000000000000008000200000000040020000000100001000000100000800020000000000000000000000c0000000000000000000000000000000000008000000000000000000100000000000000000000000000000000010002000002000000000000002040000000008000000008080000000400000020000000000000000000000000000000000040000000000000001100400008000004",
      "type": "0x2",
      "transactionHash": "0xee964e4f63cb19c177b28bd9fed473097d41d1d6e8be66952ccc4400d96de8a9",
      "transactionIndex": "0x1",
      "blockHash": "0x8d3e32d4c1bd5234be7f846b61d4b6bf97798178d650f79a1a73c15524e8e468",
      "blockNumber": "0xba8bda7",
      "gasUsed": "0x4d6ad",
      "effectiveGasPrice": "0x5f5e100",
      "from": "0x23bf95de9f90338f973056351c8cd2cb78cbe52f",
      "to": "0xcec84a8e4000dc7d2b64bbbe9fd3559a725b9945",
      "contractAddress": null,
      "gasUsedForL1": "0x0",
      "l1BlockNumber": "0x8cd3aa",
      "timeboosted": false
    }
  ],
  "libraries": [
    "src/config/Configuration.ArbitrumSepolia.sol:ConfigurationArbitrumSepolia:0x3ab0BBb104b0c63d141f539D87837F48605d1CF4",
    "src/config/Configuration.Base.sol:ConfigurationBaseMainnet:0xD13D14704f64f62Cb3B75814E26514e4642b893E",
    "src/config/Configuration.BaseSepolia.sol:ConfigurationBaseSepolia:0x8C9707A874417478512af6a60Ff0a6B7dd5541ef",
    "src/config/Configuration.Ethereum.sol:ConfigurationEthereumMainnet:0xf0b67Ec0a02A083c78B28eEdc7CfbC9e864fFA5c",
    "src/config/Configuration.EthereumSepolia.sol:ConfigurationEthereumSepolia:0xdd690679a9b8C835099Bd5d057c947BAc408E047",
    "src/config/Configuration.Local.sol:ConfigurationLocal:0x86BEf2F92c498402689b86aFA397AD6427d84fa3",
    "src/config/Configuration.sol:Configuration:0xcEA7C373b83bcE3b3aaa76788A0b754afaE21567"
  ],
  "pending": [],
  "returns": {},
  "timestamp": 1758206129454,
  "chain": 421614,
  "commit": "652f160"
}