{
  "transactions": [
    {
      "hash": "0x5e47e9a9eef24cb01b193cad2d2913787b96a9bcfb1a008ff1d77493e1e718bd",
      "transactionType": "CALL",
      "contractName": null,
      "contractAddress": "0x75faf114eafb1bdbe2f0316df893fd58ce46aa4d",
      "function": "approve(address,uint256)",
      "arguments": [
        "0x7674fA05Cb975064BFeCeF1aB6337F53Cb6978E8",
        "115792089237316195423570985008687907853269984665640564039457584007913129639935"
      ],
      "transaction": {
        "from": "0x23bf95de9f90338f973056351c8cd2cb78cbe52f",
        "to": "0x75faf114eafb1bdbe2f0316df893fd58ce46aa4d",
        "gas": "0x11f5d",
        "value": "0x0",
        "input": "0x095ea7b30000000000000000000000007674fa05cb975064bfecef1ab6337f53cb6978e8ffffffffffffffffffffffffffffffffffffffffffffffffffffffffffffffff",
        "nonce": "0x29",
        "chainId": "0x66eee"
      },
      "additionalContracts": [],
      "isFixedGasLimit": false
    },
    {
      "hash": "0x789a7545d303d046f35135c4b8f93fec7fd649c75b7e3b4b7bfad981fb4a4ab1",
      "transactionType": "CALL",
      "contractName": null,
      "contractAddress": "0x7674fa05cb975064bfecef1ab6337f53cb6978e8",
      "function": "deposit(uint256,address)",
      "arguments": [
        "1",
        "0x23BF95De9F90338F973056351C8Cd2CB78cbe52f"
      ],
      "transaction": {
        "from": "0x23bf95de9f90338f973056351c8cd2cb78cbe52f",
        "to": "0x7674fa05cb975064bfecef1ab6337f53cb6978e8",
        "gas": "0x713af",
        "value": "0x0",
        "input": "0x6e553f65000000000000000000000000000000000000000000000000000000000000000100000000000000000000000023bf95de9f90338f973056351c8cd2cb78cbe52f",
        "nonce": "0x2a",
        "chainId": "0x66eee"
      },
      "additionalContracts": [],
      "isFixedGasLimit": false
    }
  ],
  "receipts": [
    {
      "status": "0x1",
      "cumulativeGasUsed": "0xa994c",
      "logs": [
        {
          "address": "0x75faf114eafb1bdbe2f0316df893fd58ce46aa4d",
          "topics": [
            "0x8c5be1e5ebec7d5bd14f71427d1e84f3dd0314c0f7b2291e5b200ac8c7c3b925",
            "0x00000000000000000000000023bf95de9f90338f973056351c8cd2cb78cbe52f",
            "0x0000000000000000000000007674fa05cb975064bfecef1ab6337f53cb6978e8"
          ],
          "data": "0xffffffffffffffffffffffffffffffffffffffffffffffffffffffffffffffff",
          "blockHash": "0x71b836924e626fc6f1ff44a01189bc43f80a00aaeba580a83c71dd60f5c7e945",
          "blockNumber": "0xbec8dbc",
          "transactionHash": "0x5e47e9a9eef24cb01b193cad2d2913787b96a9bcfb1a008ff1d77493e1e718bd",
          "transactionIndex": "0x7",
          "logIndex": "0x9",
          "removed": false
        }
      ],
      "logsBloom": "0x00000000000000000000000000000000000000000000000000000000000000000000000000000000000000000000000000000000000000080000000000200000800000000000000000000000000000000000000000000000000000000000400000000000000000000000000000000000000000000000000000000000000000000000000000000000000000000000000000000000000000000000000000000000020000008000000000000000000100000000040000000000000000000000000000000000000000000000000000000000008000000000000000000000000000000010000000000000000000000000000000000000000000000100000000000004",
      "type": "0x2",
      "transactionHash": "0x5e47e9a9eef24cb01b193cad2d2913787b96a9bcfb1a008ff1d77493e1e718bd",
      "transactionIndex": "0x7",
      "blockHash": "0x71b836924e626fc6f1ff44a01189bc43f80a00aaeba580a83c71dd60f5c7e945",
      "blockNumber": "0xbec8dbc",
      "gasUsed": "0xd9e9",
      "effectiveGasPrice": "0x5f5e100",
      "from": "0x23bf95de9f90338f973056351c8cd2cb78cbe52f",
      "to": "0x75faf114eafb1bdbe2f0316df893fd58ce46aa4d",
      "contractAddress": null,
      "gasUsedForL1": "0x0",
      "l1BlockNumber": "0x8e35a3",
      "timeboosted": false
    },
    {
      "status": "0x1",
      "cumulativeGasUsed": "0x4d6c3",
      "logs": [
        {
          "address": "0x75faf114eafb1bdbe2f0316df893fd58ce46aa4d",
          "topics": [
            "0xddf252ad1be2c89b69c2b068fc378daa952ba7f163c4a11628f55a4df523b3ef",
            "0x00000000000000000000000023bf95de9f90338f973056351c8cd2cb78cbe52f",
            "0x0000000000000000000000007674fa05cb975064bfecef1ab6337f53cb6978e8"
          ],
          "data": "0x0000000000000000000000000000000000000000000000000000000000000001",
          "blockHash": "0x78faa9711405ced377a3bcaa83b0bd03ba6f5e345da07e9976e5ada124d5b530",
          "blockNumber": "0xbec8dc0",
          "transactionHash": "0x789a7545d303d046f35135c4b8f93fec7fd649c75b7e3b4b7bfad981fb4a4ab1",
          "transactionIndex": "0x1",
          "logIndex": "0x0",
          "removed": false
        },
        {
          "address": "0x7674fa05cb975064bfecef1ab6337f53cb6978e8",
          "topics": [
            "0xddf252ad1be2c89b69c2b068fc378daa952ba7f163c4a11628f55a4df523b3ef",
            "0x0000000000000000000000000000000000000000000000000000000000000000",
            "0x00000000000000000000000023bf95de9f90338f973056351c8cd2cb78cbe52f"
          ],
          "data": "0x0000000000000000000000000000000000000000000000000000000000000001",
          "blockHash": "0x78faa9711405ced377a3bcaa83b0bd03ba6f5e345da07e9976e5ada124d5b530",
          "blockNumber": "0xbec8dc0",
          "transactionHash": "0x789a7545d303d046f35135c4b8f93fec7fd649c75b7e3b4b7bfad981fb4a4ab1",
          "transactionIndex": "0x1",
          "logIndex": "0x1",
          "removed": false
        },
        {
          "address": "0x7674fa05cb975064bfecef1ab6337f53cb6978e8",
          "topics": [
            "0xdcbc1c05240f31ff3ad067ef1ee35ce4997762752e3a095284754544f4c709d7",
            "0x00000000000000000000000023bf95de9f90338f973056351c8cd2cb78cbe52f",
            "0x00000000000000000000000023bf95de9f90338f973056351c8cd2cb78cbe52f"
          ],
          "data": "0x00000000000000000000000000000000000000000000000000000000000000010000000000000000000000000000000000000000000000000000000000000001",
          "blockHash": "0x78faa9711405ced377a3bcaa83b0bd03ba6f5e345da07e9976e5ada124d5b530",
          "blockNumber": "0xbec8dc0",
          "transactionHash": "0x789a7545d303d046f35135c4b8f93fec7fd649c75b7e3b4b7bfad981fb4a4ab1",
          "transactionIndex": "0x1",
          "logIndex": "0x2",
          "removed": false
        },
        {
          "address": "0xbfc91d59fdaa134a4ed45f7b584caf96d7792eff",
          "topics": [
            "0x804c9b842b2748a22bb64b345453a3de7ca54a6ca45ce00d415894979e22897a",
            "0x00000000000000000000000075faf114eafb1bdbe2f0316df893fd58ce46aa4d"
          ],
          "data": "0x000000000000000000000000000000000000000000239fbaaf0100d2c0f80677000000000000000000000000000000000000000000689f6fb539190acc51de6d0000000000000000000000000000000000000000002eb85c1aad1010c651de6d000000000000000000000000000000000000000003760b461444ededdc6740840000000000000000000000000000000000000000038cf45170069adc4b03f418",
          "blockHash": "0x78faa9711405ced377a3bcaa83b0bd03ba6f5e345da07e9976e5ada124d5b530",
          "blockNumber": "0xbec8dc0",
          "transactionHash": "0x789a7545d303d046f35135c4b8f93fec7fd649c75b7e3b4b7bfad981fb4a4ab1",
          "transactionIndex": "0x1",
          "logIndex": "0x3",
          "removed": false
        },
        {
          "address": "0x75faf114eafb1bdbe2f0316df893fd58ce46aa4d",
          "topics": [
            "0xddf252ad1be2c89b69c2b068fc378daa952ba7f163c4a11628f55a4df523b3ef",
            "0x0000000000000000000000007674fa05cb975064bfecef1ab6337f53cb6978e8",
            "0x000000000000000000000000460b97bd498e1157530aeb3086301d5225b91216"
          ],
          "data": "0x0000000000000000000000000000000000000000000000000000000000000001",
          "blockHash": "0x78faa9711405ced377a3bcaa83b0bd03ba6f5e345da07e9976e5ada124d5b530",
          "blockNumber": "0xbec8dc0",
          "transactionHash": "0x789a7545d303d046f35135c4b8f93fec7fd649c75b7e3b4b7bfad981fb4a4ab1",
          "transactionIndex": "0x1",
          "logIndex": "0x4",
          "removed": false
        },
        {
          "address": "0x460b97bd498e1157530aeb3086301d5225b91216",
          "topics": [
            "0xddf252ad1be2c89b69c2b068fc378daa952ba7f163c4a11628f55a4df523b3ef",
            "0x0000000000000000000000000000000000000000000000000000000000000000",
            "0x0000000000000000000000007674fa05cb975064bfecef1ab6337f53cb6978e8"
          ],
          "data": "0x0000000000000000000000000000000000000000000000000000000000000001",
          "blockHash": "0x78faa9711405ced377a3bcaa83b0bd03ba6f5e345da07e9976e5ada124d5b530",
          "blockNumber": "0xbec8dc0",
          "transactionHash": "0x789a7545d303d046f35135c4b8f93fec7fd649c75b7e3b4b7bfad981fb4a4ab1",
          "transactionIndex": "0x1",
          "logIndex": "0x5",
          "removed": false
        },
        {
          "address": "0x460b97bd498e1157530aeb3086301d5225b91216",
          "topics": [
            "0x458f5fa412d0f69b08dd84872b0215675cc67bc1d5b6fd93300a1c3878b86196",
            "0x0000000000000000000000007674fa05cb975064bfecef1ab6337f53cb6978e8",
            "0x0000000000000000000000007674fa05cb975064bfecef1ab6337f53cb6978e8"
          ],
          "data": "0x00000000000000000000000000000000000000000000000000000000000000010000000000000000000000000000000000000000000000000000000000000000000000000000000000000000000000000000000003760b461444ededdc674084",
          "blockHash": "0x78faa9711405ced377a3bcaa83b0bd03ba6f5e345da07e9976e5ada124d5b530",
          "blockNumber": "0xbec8dc0",
          "transactionHash": "0x789a7545d303d046f35135c4b8f93fec7fd649c75b7e3b4b7bfad981fb4a4ab1",
          "transactionIndex": "0x1",
          "logIndex": "0x6",
          "removed": false
        },
        {
          "address": "0xbfc91d59fdaa134a4ed45f7b584caf96d7792eff",
          "topics": [
            "0x00058a56ea94653cdf4f152d227ace22d4c00ad99e2a43f58cb7d9e3feb295f2",
            "0x00000000000000000000000075faf114eafb1bdbe2f0316df893fd58ce46aa4d",
            "0x0000000000000000000000007674fa05cb975064bfecef1ab6337f53cb6978e8"
          ],
          "data": "0x",
          "blockHash": "0x78faa9711405ced377a3bcaa83b0bd03ba6f5e345da07e9976e5ada124d5b530",
          "blockNumber": "0xbec8dc0",
          "transactionHash": "0x789a7545d303d046f35135c4b8f93fec7fd649c75b7e3b4b7bfad981fb4a4ab1",
          "transactionIndex": "0x1",
          "logIndex": "0x7",
          "removed": false
        },
        {
          "address": "0xbfc91d59fdaa134a4ed45f7b584caf96d7792eff",
          "topics": [
            "0x2b627736bca15cd5381dcf80b0bf11fd197d01a037c52b927a881a10fb73ba61",
            "0x00000000000000000000000075faf114eafb1bdbe2f0316df893fd58ce46aa4d",
            "0x0000000000000000000000007674fa05cb975064bfecef1ab6337f53cb6978e8",
            "0x0000000000000000000000000000000000000000000000000000000000000000"
          ],
          "data": "0x0000000000000000000000007674fa05cb975064bfecef1ab6337f53cb6978e80000000000000000000000000000000000000000000000000000000000000001",
          "blockHash": "0x78faa9711405ced377a3bcaa83b0bd03ba6f5e345da07e9976e5ada124d5b530",
          "blockNumber": "0xbec8dc0",
          "transactionHash": "0x789a7545d303d046f35135c4b8f93fec7fd649c75b7e3b4b7bfad981fb4a4ab1",
          "transactionIndex": "0x1",
          "logIndex": "0x8",
          "removed": false
        },
        {
          "address": "0x7674fa05cb975064bfecef1ab6337f53cb6978e8",
          "topics": [
            "0xba3ffa58e6beddd202dec6f1b1bb88dbb12d8823d523283b2ebbe9b627c9eb02"
          ],
          "data": "0x00000000000000000000000000000000000000000000000000000000000000010000000000000000000000000000000000000000000000000000000000000001",
          "blockHash": "0x78faa9711405ced377a3bcaa83b0bd03ba6f5e345da07e9976e5ada124d5b530",
          "blockNumber": "0xbec8dc0",
          "transactionHash": "0x789a7545d303d046f35135c4b8f93fec7fd649c75b7e3b4b7bfad981fb4a4ab1",
          "transactionIndex": "0x1",
          "logIndex": "0x9",
          "removed": false
        }
      ],
      "logsBloom": "0x000000000000080000800000000000000000000000000000000000200000000000000000000000000000000000040000000180000000000900000000000000008000104401000002000000080100000000000000000000000000000400004000000000000200000000000000000008000200000000040020000000100001000000000000800000000000000000000000000c0000000000000000000000000000000000008000000000000000000100000000040000000000000000000000010002000002000000000000002040000000008000000008080000000400000020000000000000000000000000000000000040000000000000001300400000000004",
      "type": "0x2",
      "transactionHash": "0x789a7545d303d046f35135c4b8f93fec7fd649c75b7e3b4b7bfad981fb4a4ab1",
      "transactionIndex": "0x1",
      "blockHash": "0x78faa9711405ced377a3bcaa83b0bd03ba6f5e345da07e9976e5ada124d5b530",
      "blockNumber": "0xbec8dc0",
      "gasUsed": "0x4d6c3",
      "effectiveGasPrice": "0x5f5e100",
      "from": "0x23bf95de9f90338f973056351c8cd2cb78cbe52f",
      "to": "0x7674fa05cb975064bfecef1ab6337f53cb6978e8",
      "contractAddress": null,
      "gasUsedForL1": "0x0",
      "l1BlockNumber": "0x8e35a3",
      "timeboosted": false
    }
  ],
  "libraries": [
    "src/config/Configuration.ArbitrumSepolia.sol:ConfigurationArbitrumSepolia:0xaEfAcb729F415DA03955b280963B5275c1F81139",
    "src/config/Configuration.Base.sol:ConfigurationBaseMainnet:0x2ba48b471400963e2Aa02FaF9118025D44f4C680",
    "src/config/Configuration.BaseSepolia.sol:ConfigurationBaseSepolia:0xeD88818f8FD4DB7F13E33De2605Ed5eF5c0920a0",
    "src/config/Configuration.Ethereum.sol:ConfigurationEthereumMainnet:0x8b3158C46F500b67A84602613AdCf36A222c55C5",
    "src/config/Configuration.EthereumSepolia.sol:ConfigurationEthereumSepolia:0xe7BFd4fC906Cb3f110782c86a0555c895Eec2309",
    "src/config/Configuration.Local.sol:ConfigurationLocal:0x3F0037B8F34D46f7f7BeE0c9913f94B24844f1dB",
    "src/config/Configuration.sol:Configuration:0x377907f379E2C7E7f88a74bE28CB3d0d2d962233"
  ],
  "pending": [],
  "returns": {},
  "timestamp": 1759323973442,
  "chain": 421614,
  "commit": "f8f4ec4"
}