{
  "transactions": [
    {
      "hash": "0xe5b1ba0304e58375a47d6ab1d3d840916882ba8cf2275cdd034e4724fec27ceb",
      "transactionType": "CALL",
      "contractName": null,
      "contractAddress": "0xb2084245fd9fa6b9eb05a570d0d7d3f8cdb76f7c",
      "function": "approve(address,uint256)",
      "arguments": [
        "0xEb7e4C16068C2cbB0f4Ec9D0741d84a65786B8A6",
        "115792089237316195423570985008687907853269984665640564039457584007913129639935"
      ],
      "transaction": {
        "from": "0x23bf95de9f90338f973056351c8cd2cb78cbe52f",
        "to": "0xb2084245fd9fa6b9eb05a570d0d7d3f8cdb76f7c",
        "gas": "0xfee1",
        "value": "0x0",
        "input": "0x095ea7b3000000000000000000000000eb7e4c16068c2cbb0f4ec9d0741d84a65786b8a6ffffffffffffffffffffffffffffffffffffffffffffffffffffffffffffffff",
        "nonce": "0x159",
        "chainId": "0x14a34"
      },
      "additionalContracts": [],
      "isFixedGasLimit": false
    },
    {
      "hash": "0xe49992e32c8f4d5e453ecd2e0f6602c6accdc78f69bb7816daa4f62d9e4bcbdd",
      "transactionType": "CALL",
      "contractName": null,
      "contractAddress": "0xeb7e4c16068c2cbb0f4ec9d0741d84a65786b8a6",
      "function": "deposit(uint256,address)",
      "arguments": [
        "100000000000",
        "0x23BF95De9F90338F973056351C8Cd2CB78cbe52f"
      ],
      "transaction": {
        "from": "0x23bf95de9f90338f973056351c8cd2cb78cbe52f",
        "to": "0xeb7e4c16068c2cbb0f4ec9d0741d84a65786b8a6",
        "gas": "0x265f0",
        "value": "0x0",
        "input": "0x6e553f65000000000000000000000000000000000000000000000000000000174876e80000000000000000000000000023bf95de9f90338f973056351c8cd2cb78cbe52f",
        "nonce": "0x15a",
        "chainId": "0x14a34"
      },
      "additionalContracts": [],
      "isFixedGasLimit": false
    }
  ],
  "receipts": [
    {
      "status": "0x1",
      "cumulativeGasUsed": "0x62dcbd",
      "logs": [
        {
          "address": "0xb2084245fd9fa6b9eb05a570d0d7d3f8cdb76f7c",
          "topics": [
            "0x8c5be1e5ebec7d5bd14f71427d1e84f3dd0314c0f7b2291e5b200ac8c7c3b925",
            "0x00000000000000000000000023bf95de9f90338f973056351c8cd2cb78cbe52f",
            "0x000000000000000000000000eb7e4c16068c2cbb0f4ec9d0741d84a65786b8a6"
          ],
          "data": "0xffffffffffffffffffffffffffffffffffffffffffffffffffffffffffffffff",
          "blockHash": "0x704d318175730cca90e5a3595c2ddd4f07d0d67a51bd7d55079d2cab0a07a9a9",
          "blockNumber": "0x1a5a66c",
          "blockTimestamp": "0x685eabb8",
          "transactionHash": "0xe5b1ba0304e58375a47d6ab1d3d840916882ba8cf2275cdd034e4724fec27ceb",
          "transactionIndex": "0x1f",
          "logIndex": "0x96",
          "removed": false
        }
      ],
      "logsBloom": "0x00000000000000000000000000000000000000000000000000000000000000000000000000000000000000000000000000000000000000000000000000200000000000000000000000000000000000000000000000000020000000000000000000000000000000000000000000000000000000000000000000000000000000000000000000000000000000000000010000000000000000000000000000000000020000008000000020000000000100000000000000000000000000000000000000000000000000000000000000000000008000000000000000000000000000000010000800000000020000000000000008000000000000000000000000000000",
      "type": "0x2",
      "transactionHash": "0xe5b1ba0304e58375a47d6ab1d3d840916882ba8cf2275cdd034e4724fec27ceb",
      "transactionIndex": "0x1f",
      "blockHash": "0x704d318175730cca90e5a3595c2ddd4f07d0d67a51bd7d55079d2cab0a07a9a9",
      "blockNumber": "0x1a5a66c",
      "gasUsed": "0xb888",
      "effectiveGasPrice": "0xf4628",
      "from": "0x23bf95de9f90338f973056351c8cd2cb78cbe52f",
      "to": "0xb2084245fd9fa6b9eb05a570d0d7d3f8cdb76f7c",
      "contractAddress": null,
      "l1BaseFeeScalar": "0x44d",
      "l1BlobBaseFee": "0x1",
      "l1BlobBaseFeeScalar": "0xa118b",
      "l1Fee": "0x1576ed",
      "l1GasPrice": "0xc2f23",
      "l1GasUsed": "0x640"
    },
    {
      "status": "0x1",
      "cumulativeGasUsed": "0x649939",
      "logs": [
        {
          "address": "0xb2084245fd9fa6b9eb05a570d0d7d3f8cdb76f7c",
          "topics": [
            "0xddf252ad1be2c89b69c2b068fc378daa952ba7f163c4a11628f55a4df523b3ef",
            "0x00000000000000000000000023bf95de9f90338f973056351c8cd2cb78cbe52f",
            "0x000000000000000000000000eb7e4c16068c2cbb0f4ec9d0741d84a65786b8a6"
          ],
          "data": "0x000000000000000000000000000000000000000000000000000000174876e800",
          "blockHash": "0x704d318175730cca90e5a3595c2ddd4f07d0d67a51bd7d55079d2cab0a07a9a9",
          "blockNumber": "0x1a5a66c",
          "blockTimestamp": "0x685eabb8",
          "transactionHash": "0xe49992e32c8f4d5e453ecd2e0f6602c6accdc78f69bb7816daa4f62d9e4bcbdd",
          "transactionIndex": "0x20",
          "logIndex": "0x97",
          "removed": false
        },
        {
          "address": "0xeb7e4c16068c2cbb0f4ec9d0741d84a65786b8a6",
          "topics": [
            "0xddf252ad1be2c89b69c2b068fc378daa952ba7f163c4a11628f55a4df523b3ef",
            "0x0000000000000000000000000000000000000000000000000000000000000000",
            "0x00000000000000000000000023bf95de9f90338f973056351c8cd2cb78cbe52f"
          ],
          "data": "0x000000000000000000000000000000000000000000000000000000174876e800",
          "blockHash": "0x704d318175730cca90e5a3595c2ddd4f07d0d67a51bd7d55079d2cab0a07a9a9",
          "blockNumber": "0x1a5a66c",
          "blockTimestamp": "0x685eabb8",
          "transactionHash": "0xe49992e32c8f4d5e453ecd2e0f6602c6accdc78f69bb7816daa4f62d9e4bcbdd",
          "transactionIndex": "0x20",
          "logIndex": "0x98",
          "removed": false
        },
        {
          "address": "0xeb7e4c16068c2cbb0f4ec9d0741d84a65786b8a6",
          "topics": [
            "0xdcbc1c05240f31ff3ad067ef1ee35ce4997762752e3a095284754544f4c709d7",
            "0x00000000000000000000000023bf95de9f90338f973056351c8cd2cb78cbe52f",
            "0x00000000000000000000000023bf95de9f90338f973056351c8cd2cb78cbe52f"
          ],
          "data": "0x000000000000000000000000000000000000000000000000000000174876e800000000000000000000000000000000000000000000000000000000174876e800",
          "blockHash": "0x704d318175730cca90e5a3595c2ddd4f07d0d67a51bd7d55079d2cab0a07a9a9",
          "blockNumber": "0x1a5a66c",
          "blockTimestamp": "0x685eabb8",
          "transactionHash": "0xe49992e32c8f4d5e453ecd2e0f6602c6accdc78f69bb7816daa4f62d9e4bcbdd",
          "transactionIndex": "0x20",
          "logIndex": "0x99",
          "removed": false
        }
      ],
      "logsBloom": "0x00000000000000000000000000000000000000000000000000000000000001000000000000000000000000000000000000000000000000000000000000000000000000400000000040000008000000000000000200000020000000000000000000000000020000000000000000000800000000000004000000000010000000000000000000000000000000000000010000000000000000000000000000000000000000008000000020000000000100000000000000000000000000000000000000000002000000000000000000000000008000000008000000000000000020000000000800000000020000000000000008000000000000000000000000000000",
      "type": "0x2",
      "transactionHash": "0xe49992e32c8f4d5e453ecd2e0f6602c6accdc78f69bb7816daa4f62d9e4bcbdd",
      "transactionIndex": "0x20",
      "blockHash": "0x704d318175730cca90e5a3595c2ddd4f07d0d67a51bd7d55079d2cab0a07a9a9",
      "blockNumber": "0x1a5a66c",
      "gasUsed": "0x1bc7c",
      "effectiveGasPrice": "0xf4628",
      "from": "0x23bf95de9f90338f973056351c8cd2cb78cbe52f",
      "to": "0xeb7e4c16068c2cbb0f4ec9d0741d84a65786b8a6",
      "contractAddress": null,
      "l1BaseFeeScalar": "0x44d",
      "l1BlobBaseFee": "0x1",
      "l1BlobBaseFeeScalar": "0xa118b",
      "l1Fee": "0x1576ed",
      "l1GasPrice": "0xc2f23",
      "l1GasUsed": "0x640"
    }
  ],
  "libraries": [
    "src/config/Configuration.Base.sol:ConfigurationBaseMainnet:0x6D13A06c5CC4fC8Ec52E482eEA83348eD0081FaF",
    "src/config/Configuration.BaseSepolia.sol:ConfigurationBaseSepolia:0xD6470B4070cE8717c2Ed5DB13A85F98A70679421",
    "src/config/Configuration.Ethereum.sol:ConfigurationEthereumMainnet:0x3B861C85bC5b6b72551030867D583687fd7700f1",
    "src/config/Configuration.EthereumSepolia.sol:ConfigurationEthereumSepolia:0xbA086E2E086bbA35d1acdB10B4873C6516a3750e",
    "src/config/Configuration.Local.sol:ConfigurationLocal:0xD4fA463633585E27B1Be2348821D3bef7597De1b",
    "src/config/Configuration.sol:Configuration:0x8b02e755673da144E13bABc5F2CC2d6cDE57DE68"
  ],
  "pending": [],
  "returns": {},
  "timestamp": 1751034807,
  "chain": 84532,
  "commit": "360df2a"
}