{
  "transactions": [
    {
      "hash": "0xfdc4b9a423e2c2b9a2e8e52d1a6960abb9b20ac5f2359e14762b0431ea6eb4ae",
      "transactionType": "CALL",
      "contractName": null,
      "contractAddress": "0x036cbd53842c5426634e7929541ec2318f3dcf7e",
      "function": "approve(address,uint256)",
      "arguments": [
        "0x565FDe3703d1bCc7Cbe161488ee1498ae429A145",
        "115792089237316195423570985008687907853269984665640564039457584007913129639935"
      ],
      "transaction": {
        "from": "0x23bf95de9f90338f973056351c8cd2cb78cbe52f",
        "to": "0x036cbd53842c5426634e7929541ec2318f3dcf7e",
        "gas": "0x13eb1",
        "value": "0x0",
        "input": "0x095ea7b3000000000000000000000000565fde3703d1bcc7cbe161488ee1498ae429a145ffffffffffffffffffffffffffffffffffffffffffffffffffffffffffffffff",
        "nonce": "0x162",
        "chainId": "0x14a34"
      },
      "additionalContracts": [],
      "isFixedGasLimit": false
    },
    {
      "hash": "0xc9831597bc7c005b7231961eb0924e5590de8b95200e82cd76ff1b8864218461",
      "transactionType": "CALL",
      "contractName": null,
      "contractAddress": "0x565fde3703d1bcc7cbe161488ee1498ae429a145",
      "function": "deposit(uint256,address)",
      "arguments": [
        "1",
        "0x23BF95De9F90338F973056351C8Cd2CB78cbe52f"
      ],
      "transaction": {
        "from": "0x23bf95de9f90338f973056351c8cd2cb78cbe52f",
        "to": "0x565fde3703d1bcc7cbe161488ee1498ae429a145",
        "gas": "0x2d7ed",
        "value": "0x0",
        "input": "0x6e553f65000000000000000000000000000000000000000000000000000000000000000100000000000000000000000023bf95de9f90338f973056351c8cd2cb78cbe52f",
        "nonce": "0x163",
        "chainId": "0x14a34"
      },
      "additionalContracts": [],
      "isFixedGasLimit": false
    }
  ],
  "receipts": [
    {
      "status": "0x1",
      "cumulativeGasUsed": "0x4f700c",
      "logs": [
        {
          "address": "0x036cbd53842c5426634e7929541ec2318f3dcf7e",
          "topics": [
            "0x8c5be1e5ebec7d5bd14f71427d1e84f3dd0314c0f7b2291e5b200ac8c7c3b925",
            "0x00000000000000000000000023bf95de9f90338f973056351c8cd2cb78cbe52f",
            "0x000000000000000000000000565fde3703d1bcc7cbe161488ee1498ae429a145"
          ],
          "data": "0xffffffffffffffffffffffffffffffffffffffffffffffffffffffffffffffff",
          "blockHash": "0x2f7a7c6473d29ecf670594e90b4c25ca30d1c68e559d31fb1a3bf7dc8b35b873",
          "blockNumber": "0x1a76859",
          "blockTimestamp": "0x68622f92",
          "transactionHash": "0xfdc4b9a423e2c2b9a2e8e52d1a6960abb9b20ac5f2359e14762b0431ea6eb4ae",
          "transactionIndex": "0x11",
          "logIndex": "0x90",
          "removed": false
        }
      ],
      "logsBloom": "0x00000000040000000000000000000000000000000000000000000002000000000000000000000000000000000000000000000000000000000000000000200000000000000000000002000000000000000000000400000000000000000000000800000000000000000000000000000000000000000000000000000000000000000000000000000000000000000000000000000000000000000000000000000000020000008000000000000000000100000000000000000000000000000000000000000000000000000000000000000000008000000000000000000000000000000010000000000000000000000020000000000000000000000000000000000000",
      "type": "0x2",
      "transactionHash": "0xfdc4b9a423e2c2b9a2e8e52d1a6960abb9b20ac5f2359e14762b0431ea6eb4ae",
      "transactionIndex": "0x11",
      "blockHash": "0x2f7a7c6473d29ecf670594e90b4c25ca30d1c68e559d31fb1a3bf7dc8b35b873",
      "blockNumber": "0x1a76859",
      "gasUsed": "0xd9e9",
      "effectiveGasPrice": "0xeee44",
      "from": "0x23bf95de9f90338f973056351c8cd2cb78cbe52f",
      "to": "0x036cbd53842c5426634e7929541ec2318f3dcf7e",
      "contractAddress": null,
      "l1BaseFeeScalar": "0x44d",
      "l1BlobBaseFee": "0x1",
      "l1BlobBaseFeeScalar": "0xa118b",
      "l1Fee": "0x10cee8b",
      "l1GasPrice": "0x98a9ae",
      "l1GasUsed": "0x640"
    },
    {
      "status": "0x1",
      "cumulativeGasUsed": "0x5161c7",
      "logs": [
        {
          "address": "0x036cbd53842c5426634e7929541ec2318f3dcf7e",
          "topics": [
            "0xddf252ad1be2c89b69c2b068fc378daa952ba7f163c4a11628f55a4df523b3ef",
            "0x00000000000000000000000023bf95de9f90338f973056351c8cd2cb78cbe52f",
            "0x000000000000000000000000565fde3703d1bcc7cbe161488ee1498ae429a145"
          ],
          "data": "0x0000000000000000000000000000000000000000000000000000000000000001",
          "blockHash": "0x2f7a7c6473d29ecf670594e90b4c25ca30d1c68e559d31fb1a3bf7dc8b35b873",
          "blockNumber": "0x1a76859",
          "blockTimestamp": "0x68622f92",
          "transactionHash": "0xc9831597bc7c005b7231961eb0924e5590de8b95200e82cd76ff1b8864218461",
          "transactionIndex": "0x12",
          "logIndex": "0x91",
          "removed": false
        },
        {
          "address": "0x565fde3703d1bcc7cbe161488ee1498ae429a145",
          "topics": [
            "0xddf252ad1be2c89b69c2b068fc378daa952ba7f163c4a11628f55a4df523b3ef",
            "0x0000000000000000000000000000000000000000000000000000000000000000",
            "0x00000000000000000000000023bf95de9f90338f973056351c8cd2cb78cbe52f"
          ],
          "data": "0x0000000000000000000000000000000000000000000000000000000000000001",
          "blockHash": "0x2f7a7c6473d29ecf670594e90b4c25ca30d1c68e559d31fb1a3bf7dc8b35b873",
          "blockNumber": "0x1a76859",
          "blockTimestamp": "0x68622f92",
          "transactionHash": "0xc9831597bc7c005b7231961eb0924e5590de8b95200e82cd76ff1b8864218461",
          "transactionIndex": "0x12",
          "logIndex": "0x92",
          "removed": false
        },
        {
          "address": "0x565fde3703d1bcc7cbe161488ee1498ae429a145",
          "topics": [
            "0xdcbc1c05240f31ff3ad067ef1ee35ce4997762752e3a095284754544f4c709d7",
            "0x00000000000000000000000023bf95de9f90338f973056351c8cd2cb78cbe52f",
            "0x00000000000000000000000023bf95de9f90338f973056351c8cd2cb78cbe52f"
          ],
          "data": "0x00000000000000000000000000000000000000000000000000000000000000010000000000000000000000000000000000000000000000000000000000000001",
          "blockHash": "0x2f7a7c6473d29ecf670594e90b4c25ca30d1c68e559d31fb1a3bf7dc8b35b873",
          "blockNumber": "0x1a76859",
          "blockTimestamp": "0x68622f92",
          "transactionHash": "0xc9831597bc7c005b7231961eb0924e5590de8b95200e82cd76ff1b8864218461",
          "transactionIndex": "0x12",
          "logIndex": "0x93",
          "removed": false
        }
      ],
      "logsBloom": "0x00000000040000000000000000000000000000000000000000000002000000000000000000000000000000000000000000000000000000000000000000000000000000400000000002000008000000000000000400000000000000000000000800000000020000000000000000000800000000000004000000000010000000000000000000000000000000000000000000000000000000000002000000000000000000018000000000000000000100000000080000000000000000000000000000000002000000000000000000000000008000000008000000000000000020000000000000000000000000000020000000000000000000000000000000000000",
      "type": "0x2",
      "transactionHash": "0xc9831597bc7c005b7231961eb0924e5590de8b95200e82cd76ff1b8864218461",
      "transactionIndex": "0x12",
      "blockHash": "0x2f7a7c6473d29ecf670594e90b4c25ca30d1c68e559d31fb1a3bf7dc8b35b873",
      "blockNumber": "0x1a76859",
      "gasUsed": "0x1f1bb",
      "effectiveGasPrice": "0xeee44",
      "from": "0x23bf95de9f90338f973056351c8cd2cb78cbe52f",
      "to": "0x565fde3703d1bcc7cbe161488ee1498ae429a145",
      "contractAddress": null,
      "l1BaseFeeScalar": "0x44d",
      "l1BlobBaseFee": "0x1",
      "l1BlobBaseFeeScalar": "0xa118b",
      "l1Fee": "0x10cee8b",
      "l1GasPrice": "0x98a9ae",
      "l1GasUsed": "0x640"
    }
  ],
  "libraries": [
    "src/config/Configuration.Base.sol:ConfigurationBaseMainnet:0xD6a154037805459c50b17Ce001C690f9f3D992F9",
    "src/config/Configuration.BaseSepolia.sol:ConfigurationBaseSepolia:0x0aa33FC4FAa99A956B7c7bFd88B75D87555BD0eA",
    "src/config/Configuration.Ethereum.sol:ConfigurationEthereumMainnet:0x6e374518df84C7d4117A3DEFff70E767eD7Ab392",
    "src/config/Configuration.EthereumSepolia.sol:ConfigurationEthereumSepolia:0x5B5787Af5140BafD73Ca90e539c0B51d493B4915",
    "src/config/Configuration.Local.sol:ConfigurationLocal:0x6b78ffdE1844f45fC5bbe89604bE286634A8db65",
    "src/config/Configuration.sol:Configuration:0x4D343Ba95Bd61b4351e9A777Ef9Ae3a3D2339985"
  ],
  "pending": [],
  "returns": {},
  "timestamp": 1751265169,
  "chain": 84532,
  "commit": "360df2a"
}