{
  "transactions": [
    {
      "hash": "0xee1b62f14544043f1e161864218208961ebb32a5735a205e6e7c4a92f2aad382",
      "transactionType": "CALL",
      "contractName": null,
      "contractAddress": "0x598cdad94b9cd8e018da8ee1385ceb474738379e",
      "function": "approve(address,uint256)",
      "arguments": [
        "0x1451bdfD5a8b3c60706fb6767e3c056B6aBcD49B",
        "115792089237316195423570985008687907853269984665640564039457584007913129639935"
      ],
      "transaction": {
        "from": "0x23bf95de9f90338f973056351c8cd2cb78cbe52f",
        "to": "0x598cdad94b9cd8e018da8ee1385ceb474738379e",
        "gas": "0xfee1",
        "value": "0x0",
        "input": "0x095ea7b30000000000000000000000001451bdfd5a8b3c60706fb6767e3c056b6abcd49bffffffffffffffffffffffffffffffffffffffffffffffffffffffffffffffff",
        "nonce": "0x14e",
        "chainId": "0x14a34"
      },
      "additionalContracts": [],
      "isFixedGasLimit": false
    },
    {
      "hash": "0x500d3cd8fecdd70f79c94c6d2ad110d904e42f3bee740d35160f0a6279197f98",
      "transactionType": "CALL",
      "contractName": null,
      "contractAddress": "0x1451bdfd5a8b3c60706fb6767e3c056b6abcd49b",
      "function": "deposit(uint256,address)",
      "arguments": [
        "100000000000",
        "0x23BF95De9F90338F973056351C8Cd2CB78cbe52f"
      ],
      "transaction": {
        "from": "0x23bf95de9f90338f973056351c8cd2cb78cbe52f",
        "to": "0x1451bdfd5a8b3c60706fb6767e3c056b6abcd49b",
        "gas": "0x265f0",
        "value": "0x0",
        "input": "0x6e553f65000000000000000000000000000000000000000000000000000000174876e80000000000000000000000000023bf95de9f90338f973056351c8cd2cb78cbe52f",
        "nonce": "0x14f",
        "chainId": "0x14a34"
      },
      "additionalContracts": [],
      "isFixedGasLimit": false
    }
  ],
  "receipts": [
    {
      "status": "0x1",
      "cumulativeGasUsed": "0x6c6792",
      "logs": [
        {
          "address": "0x598cdad94b9cd8e018da8ee1385ceb474738379e",
          "topics": [
            "0x8c5be1e5ebec7d5bd14f71427d1e84f3dd0314c0f7b2291e5b200ac8c7c3b925",
            "0x00000000000000000000000023bf95de9f90338f973056351c8cd2cb78cbe52f",
            "0x0000000000000000000000001451bdfd5a8b3c60706fb6767e3c056b6abcd49b"
          ],
          "data": "0xffffffffffffffffffffffffffffffffffffffffffffffffffffffffffffffff",
          "blockHash": "0xf33c5551b8ce2e8f6c2e10c539d91b6548b12bb54a4e34f7696da807635a6749",
          "blockNumber": "0x1a4c6e9",
          "blockTimestamp": "0x685cecb2",
          "transactionHash": "0xee1b62f14544043f1e161864218208961ebb32a5735a205e6e7c4a92f2aad382",
          "transactionIndex": "0x1e",
          "logIndex": "0xf2",
          "removed": false
        }
      ],
      "logsBloom": "0x00001000000000000000000000000000000000000000000000000000000000000000000000000000000000000000000000000000040000000000000000200020000000000000000000000000000000000000000000000000000000000000000000000000000000000000000000000000000000000000000000000000000000000000000000000000000000000000010000000000000000000000000000000000020000008000000000800000000100000000000000000000000000000000000000000000000000000000000000000000008008000000000000000000000000000010000000000000000000000000000000000000000000000000000000000000",
      "type": "0x2",
      "transactionHash": "0xee1b62f14544043f1e161864218208961ebb32a5735a205e6e7c4a92f2aad382",
      "transactionIndex": "0x1e",
      "blockHash": "0xf33c5551b8ce2e8f6c2e10c539d91b6548b12bb54a4e34f7696da807635a6749",
      "blockNumber": "0x1a4c6e9",
      "gasUsed": "0xb888",
      "effectiveGasPrice": "0xecdb8",
      "from": "0x23bf95de9f90338f973056351c8cd2cb78cbe52f",
      "to": "0x598cdad94b9cd8e018da8ee1385ceb474738379e",
      "contractAddress": null,
      "l1BaseFeeScalar": "0x44d",
      "l1BlobBaseFee": "0x1",
      "l1BlobBaseFeeScalar": "0xa118b",
      "l1Fee": "0x168e02940",
      "l1GasPrice": "0xccdb5307",
      "l1GasUsed": "0x640"
    },
    {
      "status": "0x1",
      "cumulativeGasUsed": "0x799a73",
      "logs": [
        {
          "address": "0x598cdad94b9cd8e018da8ee1385ceb474738379e",
          "topics": [
            "0xddf252ad1be2c89b69c2b068fc378daa952ba7f163c4a11628f55a4df523b3ef",
            "0x00000000000000000000000023bf95de9f90338f973056351c8cd2cb78cbe52f",
            "0x0000000000000000000000001451bdfd5a8b3c60706fb6767e3c056b6abcd49b"
          ],
          "data": "0x000000000000000000000000000000000000000000000000000000174876e800",
          "blockHash": "0xf33c5551b8ce2e8f6c2e10c539d91b6548b12bb54a4e34f7696da807635a6749",
          "blockNumber": "0x1a4c6e9",
          "blockTimestamp": "0x685cecb2",
          "transactionHash": "0x500d3cd8fecdd70f79c94c6d2ad110d904e42f3bee740d35160f0a6279197f98",
          "transactionIndex": "0x21",
          "logIndex": "0xff",
          "removed": false
        },
        {
          "address": "0x1451bdfd5a8b3c60706fb6767e3c056b6abcd49b",
          "topics": [
            "0xddf252ad1be2c89b69c2b068fc378daa952ba7f163c4a11628f55a4df523b3ef",
            "0x0000000000000000000000000000000000000000000000000000000000000000",
            "0x00000000000000000000000023bf95de9f90338f973056351c8cd2cb78cbe52f"
          ],
          "data": "0x000000000000000000000000000000000000000000000000000000174876e800",
          "blockHash": "0xf33c5551b8ce2e8f6c2e10c539d91b6548b12bb54a4e34f7696da807635a6749",
          "blockNumber": "0x1a4c6e9",
          "blockTimestamp": "0x685cecb2",
          "transactionHash": "0x500d3cd8fecdd70f79c94c6d2ad110d904e42f3bee740d35160f0a6279197f98",
          "transactionIndex": "0x21",
          "logIndex": "0x100",
          "removed": false
        },
        {
          "address": "0x1451bdfd5a8b3c60706fb6767e3c056b6abcd49b",
          "topics": [
            "0xdcbc1c05240f31ff3ad067ef1ee35ce4997762752e3a095284754544f4c709d7",
            "0x00000000000000000000000023bf95de9f90338f973056351c8cd2cb78cbe52f",
            "0x00000000000000000000000023bf95de9f90338f973056351c8cd2cb78cbe52f"
          ],
          "data": "0x000000000000000000000000000000000000000000000000000000174876e800000000000000000000000000000000000000000000000000000000174876e800",
          "blockHash": "0xf33c5551b8ce2e8f6c2e10c539d91b6548b12bb54a4e34f7696da807635a6749",
          "blockNumber": "0x1a4c6e9",
          "blockTimestamp": "0x685cecb2",
          "transactionHash": "0x500d3cd8fecdd70f79c94c6d2ad110d904e42f3bee740d35160f0a6279197f98",
          "transactionIndex": "0x21",
          "logIndex": "0x101",
          "removed": false
        }
      ],
      "logsBloom": "0x00001000000000000000000000000000000000000000000000000000000000000000000000000000000000000000000000000000040000000000000000000020000000400000000000000008000000000000000000000000000000000000010000000000020000000000000000400800000000000004000000000010000000000000000000000000000000000000010000000000000000000000000000000004000000008000000000800000000100000000000000000000000000000000000000000002000000000000000000000000008008000008000000000000000020000000000000000000000000000000000000000000000000000000000000000000",
      "type": "0x2",
      "transactionHash": "0x500d3cd8fecdd70f79c94c6d2ad110d904e42f3bee740d35160f0a6279197f98",
      "transactionIndex": "0x21",
      "blockHash": "0xf33c5551b8ce2e8f6c2e10c539d91b6548b12bb54a4e34f7696da807635a6749",
      "blockNumber": "0x1a4c6e9",
      "gasUsed": "0x1bc7c",
      "effectiveGasPrice": "0xecdb8",
      "from": "0x23bf95de9f90338f973056351c8cd2cb78cbe52f",
      "to": "0x1451bdfd5a8b3c60706fb6767e3c056b6abcd49b",
      "contractAddress": null,
      "l1BaseFeeScalar": "0x44d",
      "l1BlobBaseFee": "0x1",
      "l1BlobBaseFeeScalar": "0xa118b",
      "l1Fee": "0x168e02940",
      "l1GasPrice": "0xccdb5307",
      "l1GasUsed": "0x640"
    }
  ],
  "libraries": [
    "src/config/Configuration.Base.sol:ConfigurationBaseMainnet:0x2b99A2A37364219190Acc794C57676527334053B",
    "src/config/Configuration.BaseSepolia.sol:ConfigurationBaseSepolia:0x52cd6f8d84f34B90978aBF0DCDBF0A4c0102c913",
    "src/config/Configuration.Ethereum.sol:ConfigurationEthereumMainnet:0x0a8400e4370e566AA1DFfe4e75F577e728552735",
    "src/config/Configuration.EthereumSepolia.sol:ConfigurationEthereumSepolia:0xa36A20b009d5C053e96D66411996ecedc80F1738",
    "src/config/Configuration.Local.sol:ConfigurationLocal:0x0cABe89b17c67Da50ddEfa550badAe74AE51A0CF",
    "src/config/Configuration.sol:Configuration:0x72Ef3AD7D3738db6CA9bF6B4c3ad2CF1b9303576"
  ],
  "pending": [],
  "returns": {},
  "timestamp": 1750920369,
  "chain": 84532,
  "commit": "c74e5fe"
}